{
  "_format": "hh-sol-artifact-1",
  "contractName": "MyEpicNFT",
  "sourceName": "contracts/MyEpicNFT.sol",
  "abi": [
    {
      "inputs": [],
      "stateMutability": "nonpayable",
      "type": "constructor"
    },
    {
      "anonymous": false,
      "inputs": [
        {
          "indexed": true,
          "internalType": "address",
          "name": "owner",
          "type": "address"
        },
        {
          "indexed": true,
          "internalType": "address",
          "name": "approved",
          "type": "address"
        },
        {
          "indexed": true,
          "internalType": "uint256",
          "name": "tokenId",
          "type": "uint256"
        }
      ],
      "name": "Approval",
      "type": "event"
    },
    {
      "anonymous": false,
      "inputs": [
        {
          "indexed": true,
          "internalType": "address",
          "name": "owner",
          "type": "address"
        },
        {
          "indexed": true,
          "internalType": "address",
          "name": "operator",
          "type": "address"
        },
        {
          "indexed": false,
          "internalType": "bool",
          "name": "approved",
          "type": "bool"
        }
      ],
      "name": "ApprovalForAll",
      "type": "event"
    },
    {
      "anonymous": false,
      "inputs": [
        {
          "indexed": false,
          "internalType": "address",
          "name": "sender",
          "type": "address"
        },
        {
          "indexed": false,
          "internalType": "uint256",
          "name": "tokenId",
          "type": "uint256"
        }
      ],
      "name": "NewEpicNFTMinted",
      "type": "event"
    },
    {
      "anonymous": false,
      "inputs": [
        {
          "indexed": true,
          "internalType": "address",
          "name": "from",
          "type": "address"
        },
        {
          "indexed": true,
          "internalType": "address",
          "name": "to",
          "type": "address"
        },
        {
          "indexed": true,
          "internalType": "uint256",
          "name": "tokenId",
          "type": "uint256"
        }
      ],
      "name": "Transfer",
      "type": "event"
    },
    {
      "inputs": [
        {
          "internalType": "address",
          "name": "to",
          "type": "address"
        },
        {
          "internalType": "uint256",
          "name": "tokenId",
          "type": "uint256"
        }
      ],
      "name": "approve",
      "outputs": [],
      "stateMutability": "nonpayable",
      "type": "function"
    },
    {
      "inputs": [
        {
          "internalType": "address",
          "name": "owner",
          "type": "address"
        }
      ],
      "name": "balanceOf",
      "outputs": [
        {
          "internalType": "uint256",
          "name": "",
          "type": "uint256"
        }
      ],
      "stateMutability": "view",
      "type": "function"
    },
    {
      "inputs": [
        {
          "internalType": "uint256",
          "name": "tokenId",
          "type": "uint256"
        }
      ],
      "name": "getApproved",
      "outputs": [
        {
          "internalType": "address",
          "name": "",
          "type": "address"
        }
      ],
      "stateMutability": "view",
      "type": "function"
    },
    {
      "inputs": [],
      "name": "getTotalNFTsMintedSoFar",
      "outputs": [
        {
          "components": [
            {
              "internalType": "uint256",
              "name": "_value",
              "type": "uint256"
            }
          ],
          "internalType": "struct Counters.Counter",
          "name": "",
          "type": "tuple"
        }
      ],
      "stateMutability": "view",
      "type": "function"
    },
    {
      "inputs": [
        {
          "internalType": "address",
          "name": "owner",
          "type": "address"
        },
        {
          "internalType": "address",
          "name": "operator",
          "type": "address"
        }
      ],
      "name": "isApprovedForAll",
      "outputs": [
        {
          "internalType": "bool",
          "name": "",
          "type": "bool"
        }
      ],
      "stateMutability": "view",
      "type": "function"
    },
    {
      "inputs": [],
      "name": "makeAnEpicNFT",
      "outputs": [],
      "stateMutability": "nonpayable",
      "type": "function"
    },
    {
      "inputs": [],
      "name": "name",
      "outputs": [
        {
          "internalType": "string",
          "name": "",
          "type": "string"
        }
      ],
      "stateMutability": "view",
      "type": "function"
    },
    {
      "inputs": [
        {
          "internalType": "uint256",
          "name": "tokenId",
          "type": "uint256"
        }
      ],
      "name": "ownerOf",
      "outputs": [
        {
          "internalType": "address",
          "name": "",
          "type": "address"
        }
      ],
      "stateMutability": "view",
      "type": "function"
    },
    {
      "inputs": [
        {
          "internalType": "uint256",
          "name": "tokenId",
          "type": "uint256"
        }
      ],
      "name": "pickRandomFirstWord",
      "outputs": [
        {
          "internalType": "string",
          "name": "",
          "type": "string"
        }
      ],
      "stateMutability": "view",
      "type": "function"
    },
    {
      "inputs": [
        {
          "internalType": "uint256",
          "name": "tokenId",
          "type": "uint256"
        }
      ],
      "name": "pickRandomSecondWord",
      "outputs": [
        {
          "internalType": "string",
          "name": "",
          "type": "string"
        }
      ],
      "stateMutability": "view",
      "type": "function"
    },
    {
      "inputs": [
        {
          "internalType": "uint256",
          "name": "tokenId",
          "type": "uint256"
        }
      ],
      "name": "pickRandomThirdWord",
      "outputs": [
        {
          "internalType": "string",
          "name": "",
          "type": "string"
        }
      ],
      "stateMutability": "view",
      "type": "function"
    },
    {
      "inputs": [
        {
          "internalType": "address",
          "name": "from",
          "type": "address"
        },
        {
          "internalType": "address",
          "name": "to",
          "type": "address"
        },
        {
          "internalType": "uint256",
          "name": "tokenId",
          "type": "uint256"
        }
      ],
      "name": "safeTransferFrom",
      "outputs": [],
      "stateMutability": "nonpayable",
      "type": "function"
    },
    {
      "inputs": [
        {
          "internalType": "address",
          "name": "from",
          "type": "address"
        },
        {
          "internalType": "address",
          "name": "to",
          "type": "address"
        },
        {
          "internalType": "uint256",
          "name": "tokenId",
          "type": "uint256"
        },
        {
          "internalType": "bytes",
          "name": "_data",
          "type": "bytes"
        }
      ],
      "name": "safeTransferFrom",
      "outputs": [],
      "stateMutability": "nonpayable",
      "type": "function"
    },
    {
      "inputs": [
        {
          "internalType": "address",
          "name": "operator",
          "type": "address"
        },
        {
          "internalType": "bool",
          "name": "approved",
          "type": "bool"
        }
      ],
      "name": "setApprovalForAll",
      "outputs": [],
      "stateMutability": "nonpayable",
      "type": "function"
    },
    {
      "inputs": [
        {
          "internalType": "bytes4",
          "name": "interfaceId",
          "type": "bytes4"
        }
      ],
      "name": "supportsInterface",
      "outputs": [
        {
          "internalType": "bool",
          "name": "",
          "type": "bool"
        }
      ],
      "stateMutability": "view",
      "type": "function"
    },
    {
      "inputs": [],
      "name": "symbol",
      "outputs": [
        {
          "internalType": "string",
          "name": "",
          "type": "string"
        }
      ],
      "stateMutability": "view",
      "type": "function"
    },
    {
      "inputs": [
        {
          "internalType": "uint256",
          "name": "tokenId",
          "type": "uint256"
        }
      ],
      "name": "tokenURI",
      "outputs": [
        {
          "internalType": "string",
          "name": "",
          "type": "string"
        }
      ],
      "stateMutability": "view",
      "type": "function"
    },
    {
      "inputs": [
        {
          "internalType": "address",
          "name": "from",
          "type": "address"
        },
        {
          "internalType": "address",
          "name": "to",
          "type": "address"
        },
        {
          "internalType": "uint256",
          "name": "tokenId",
          "type": "uint256"
        }
      ],
      "name": "transferFrom",
      "outputs": [],
      "stateMutability": "nonpayable",
      "type": "function"
    }
  ],
  "bytecode": "0x608060405260405180610160016040528061012f8152602001620043a261012f913960089080519060200190620000389291906200076b565b506040518060e001604052806040518060400160405280600981526020017f46616e746173746963000000000000000000000000000000000000000000000081525081526020016040518060400160405280600481526020017f457069630000000000000000000000000000000000000000000000000000000081525081526020016040518060400160405280600881526020017f5465727269626c6500000000000000000000000000000000000000000000000081525081526020016040518060400160405280600581526020017f4372617a7900000000000000000000000000000000000000000000000000000081525081526020016040518060400160405280600481526020017f57696c640000000000000000000000000000000000000000000000000000000081525081526020016040518060400160405280600a81526020017f54657272696679696e670000000000000000000000000000000000000000000081525081526020016040518060400160405280600681526020017f53706f6f6b7900000000000000000000000000000000000000000000000000008152508152506009906007620001f1929190620007fc565b506040518060e001604052806040518060400160405280600781526020017f43757063616b650000000000000000000000000000000000000000000000000081525081526020016040518060400160405280600581526020017f50697a7a6100000000000000000000000000000000000000000000000000000081525081526020016040518060400160405280600981526020017f4d696c6b7368616b65000000000000000000000000000000000000000000000081525081526020016040518060400160405280600581526020017f437572727900000000000000000000000000000000000000000000000000000081525081526020016040518060400160405280600781526020017f436869636b656e0000000000000000000000000000000000000000000000000081525081526020016040518060400160405280600881526020017f53616e647769636800000000000000000000000000000000000000000000000081525081526020016040518060400160405280600581526020017f53616c6164000000000000000000000000000000000000000000000000000000815250815250600a906007620003aa929190620007fc565b506040518061010001604052806040518060400160405280600681526020017f4e617275746f000000000000000000000000000000000000000000000000000081525081526020016040518060400160405280600681526020017f536173756b65000000000000000000000000000000000000000000000000000081525081526020016040518060400160405280600681526020017f53616b757261000000000000000000000000000000000000000000000000000081525081526020016040518060400160405280600481526020017f476f6b750000000000000000000000000000000000000000000000000000000081525081526020016040518060400160405280600581526020017f476161726100000000000000000000000000000000000000000000000000000081525081526020016040518060400160405280600681526020017f4d696e61746f000000000000000000000000000000000000000000000000000081525081526020016040518060400160405280600781526020017f4b616b617368690000000000000000000000000000000000000000000000000081525081526020016040518060400160405280600681526020017f4d61646172610000000000000000000000000000000000000000000000000000815250815250600b9060086200059f92919062000863565b50348015620005ad57600080fd5b506040518060400160405280600981526020017f5371756172654e465400000000000000000000000000000000000000000000008152506040518060400160405280600681526020017f53515541524500000000000000000000000000000000000000000000000000008152508160009080519060200190620006329291906200076b565b5080600190805190602001906200064b9291906200076b565b505050620006996040518060400160405280601e81526020017f54686973206973206d79204e465420636f6e74726163742e20576f61682100008152506200069f60201b620012761760201c565b62000a84565b6200073f81604051602401620006b6919062000998565b6040516020818303038152906040527f41304fac000000000000000000000000000000000000000000000000000000007bffffffffffffffffffffffffffffffffffffffffffffffffffffffff19166020820180517bffffffffffffffffffffffffffffffffffffffffffffffffffffffff83818316178352505050506200074260201b60201c565b50565b60008151905060006a636f6e736f6c652e6c6f679050602083016000808483855afa5050505050565b828054620007799062000a0e565b90600052602060002090601f0160209004810192826200079d5760008555620007e9565b82601f10620007b857805160ff1916838001178555620007e9565b82800160010185558215620007e9579182015b82811115620007e8578251825591602001919060010190620007cb565b5b509050620007f89190620008ca565b5090565b82805482825590600052602060002090810192821562000850579160200282015b828111156200084f5782518290805190602001906200083e9291906200076b565b50916020019190600101906200081d565b5b5090506200085f9190620008e9565b5090565b828054828255906000526020600020908101928215620008b7579160200282015b82811115620008b6578251829080519060200190620008a59291906200076b565b509160200191906001019062000884565b5b509050620008c69190620008e9565b5090565b5b80821115620008e5576000816000905550600101620008cb565b5090565b5b808211156200090d576000818162000903919062000911565b50600101620008ea565b5090565b5080546200091f9062000a0e565b6000825580601f1062000933575062000954565b601f016020900490600052602060002090810190620009539190620008ca565b5b50565b60006200096482620009bc565b620009708185620009c7565b935062000982818560208601620009d8565b6200098d8162000a73565b840191505092915050565b60006020820190508181036000830152620009b4818462000957565b905092915050565b600081519050919050565b600082825260208201905092915050565b60005b83811015620009f8578082015181840152602081019050620009db565b8381111562000a08576000848401525b50505050565b6000600282049050600182168062000a2757607f821691505b6020821081141562000a3e5762000a3d62000a44565b5b50919050565b7f4e487b7100000000000000000000000000000000000000000000000000000000600052602260045260246000fd5b6000601f19601f8301169050919050565b61390e8062000a946000396000f3fe608060405234801561001057600080fd5b50600436106101165760003560e01c806370a08231116100a2578063b88d4fde11610071578063b88d4fde14610305578063c575757a14610321578063c87b56dd14610351578063de9d132f14610381578063e985e9c51461038b57610116565b806370a082311461026b57806395d89b411461029b578063a22cb465146102b9578063b187301f146102d557610116565b8063095ea7b3116100e9578063095ea7b3146101b757806323b872dd146101d35780632de38d68146101ef57806342842e0e1461021f5780636352211e1461023b57610116565b806301ffc9a71461011b578063060475901461014b57806306fdde0314610169578063081812fc14610187575b600080fd5b6101356004803603810190610130919061251c565b6103bb565b6040516101429190613169565b60405180910390f35b61015361049d565b60405161016091906133e4565b60405180910390f35b6101716104c1565b60405161017e9190613184565b60405180910390f35b6101a1600480360381019061019c919061256e565b610553565b6040516101ae91906130d9565b60405180910390f35b6101d160048036038101906101cc91906124e0565b6105d8565b005b6101ed60048036038101906101e891906123da565b6106f0565b005b6102096004803603810190610204919061256e565b610750565b6040516102169190613184565b60405180910390f35b610239600480360381019061023491906123da565b61086e565b005b6102556004803603810190610250919061256e565b61088e565b60405161026291906130d9565b60405180910390f35b61028560048036038101906102809190612375565b610940565b60405161029291906133ff565b60405180910390f35b6102a36109f8565b6040516102b09190613184565b60405180910390f35b6102d360048036038101906102ce91906124a4565b610a8a565b005b6102ef60048036038101906102ea919061256e565b610c0b565b6040516102fc9190613184565b60405180910390f35b61031f600480360381019061031a9190612429565b610d29565b005b61033b6004803603810190610336919061256e565b610d8b565b6040516103489190613184565b60405180910390f35b61036b6004803603810190610366919061256e565b610ea9565b6040516103789190613184565b60405180910390f35b610389610ffb565b005b6103a560048036038101906103a0919061239e565b6111e2565b6040516103b29190613169565b60405180910390f35b60007f80ac58cd000000000000000000000000000000000000000000000000000000007bffffffffffffffffffffffffffffffffffffffffffffffffffffffff1916827bffffffffffffffffffffffffffffffffffffffffffffffffffffffff1916148061048657507f5b5e139f000000000000000000000000000000000000000000000000000000007bffffffffffffffffffffffffffffffffffffffffffffffffffffffff1916827bffffffffffffffffffffffffffffffffffffffffffffffffffffffff1916145b8061049657506104958261130f565b5b9050919050565b6104a56121ee565b6007604051806020016040529081600082015481525050905090565b6060600080546104d09061369e565b80601f01602080910402602001604051908101604052809291908181526020018280546104fc9061369e565b80156105495780601f1061051e57610100808354040283529160200191610549565b820191906000526020600020905b81548152906001019060200180831161052c57829003601f168201915b5050505050905090565b600061055e82611379565b61059d576040517f08c379a000000000000000000000000000000000000000000000000000000000815260040161059490613344565b60405180910390fd5b6004600083815260200190815260200160002060009054906101000a900473ffffffffffffffffffffffffffffffffffffffff169050919050565b60006105e38261088e565b90508073ffffffffffffffffffffffffffffffffffffffff168373ffffffffffffffffffffffffffffffffffffffff161415610654576040517f08c379a000000000000000000000000000000000000000000000000000000000815260040161064b906133a4565b60405180910390fd5b8073ffffffffffffffffffffffffffffffffffffffff166106736113e5565b73ffffffffffffffffffffffffffffffffffffffff1614806106a257506106a18161069c6113e5565b6111e2565b5b6106e1576040517f08c379a00000000000000000000000000000000000000000000000000000000081526004016106d890613284565b60405180910390fd5b6106eb83836113ed565b505050565b6107016106fb6113e5565b826114a6565b610740576040517f08c379a0000000000000000000000000000000000000000000000000000000008152600401610737906133c4565b60405180910390fd5b61074b838383611584565b505050565b60606000610784610760846117e0565b6040516020016107709190613095565b60405160208183030381529060405261198d565b9050600980549050816107979190613719565b9050600981815481106107d3577f4e487b7100000000000000000000000000000000000000000000000000000000600052603260045260246000fd5b9060005260206000200180546107e89061369e565b80601f01602080910402602001604051908101604052809291908181526020018280546108149061369e565b80156108615780601f1061083657610100808354040283529160200191610861565b820191906000526020600020905b81548152906001019060200180831161084457829003601f168201915b5050505050915050919050565b61088983838360405180602001604052806000815250610d29565b505050565b6000806002600084815260200190815260200160002060009054906101000a900473ffffffffffffffffffffffffffffffffffffffff169050600073ffffffffffffffffffffffffffffffffffffffff168173ffffffffffffffffffffffffffffffffffffffff161415610937576040517f08c379a000000000000000000000000000000000000000000000000000000000815260040161092e906132c4565b60405180910390fd5b80915050919050565b60008073ffffffffffffffffffffffffffffffffffffffff168273ffffffffffffffffffffffffffffffffffffffff1614156109b1576040517f08c379a00000000000000000000000000000000000000000000000000000000081526004016109a8906132a4565b60405180910390fd5b600360008373ffffffffffffffffffffffffffffffffffffffff1673ffffffffffffffffffffffffffffffffffffffff168152602001908152602001600020549050919050565b606060018054610a079061369e565b80601f0160208091040260200160405190810160405280929190818152602001828054610a339061369e565b8015610a805780601f10610a5557610100808354040283529160200191610a80565b820191906000526020600020905b815481529060010190602001808311610a6357829003601f168201915b5050505050905090565b610a926113e5565b73ffffffffffffffffffffffffffffffffffffffff168273ffffffffffffffffffffffffffffffffffffffff161415610b00576040517f08c379a0000000000000000000000000000000000000000000000000000000008152600401610af790613244565b60405180910390fd5b8060056000610b0d6113e5565b73ffffffffffffffffffffffffffffffffffffffff1673ffffffffffffffffffffffffffffffffffffffff16815260200190815260200160002060008473ffffffffffffffffffffffffffffffffffffffff1673ffffffffffffffffffffffffffffffffffffffff16815260200190815260200160002060006101000a81548160ff0219169083151502179055508173ffffffffffffffffffffffffffffffffffffffff16610bba6113e5565b73ffffffffffffffffffffffffffffffffffffffff167f17307eab39ab6107e8899845ad3d59bd9653f200f220920489ca2b5937696c3183604051610bff9190613169565b60405180910390a35050565b60606000610c3f610c1b846117e0565b604051602001610c2b919061302e565b60405160208183030381529060405261198d565b9050600a8054905081610c529190613719565b9050600a8181548110610c8e577f4e487b7100000000000000000000000000000000000000000000000000000000600052603260045260246000fd5b906000526020600020018054610ca39061369e565b80601f0160208091040260200160405190810160405280929190818152602001828054610ccf9061369e565b8015610d1c5780601f10610cf157610100808354040283529160200191610d1c565b820191906000526020600020905b815481529060010190602001808311610cff57829003601f168201915b5050505050915050919050565b610d3a610d346113e5565b836114a6565b610d79576040517f08c379a0000000000000000000000000000000000000000000000000000000008152600401610d70906133c4565b60405180910390fd5b610d85848484846119c0565b50505050565b60606000610dbf610d9b846117e0565b604051602001610dab919061300c565b60405160208183030381529060405261198d565b9050600b8054905081610dd29190613719565b9050600b8181548110610e0e577f4e487b7100000000000000000000000000000000000000000000000000000000600052603260045260246000fd5b906000526020600020018054610e239061369e565b80601f0160208091040260200160405190810160405280929190818152602001828054610e4f9061369e565b8015610e9c5780601f10610e7157610100808354040283529160200191610e9c565b820191906000526020600020905b815481529060010190602001808311610e7f57829003601f168201915b5050505050915050919050565b6060610eb482611379565b610ef3576040517f08c379a0000000000000000000000000000000000000000000000000000000008152600401610eea90613324565b60405180910390fd5b6000600660008481526020019081526020016000208054610f139061369e565b80601f0160208091040260200160405190810160405280929190818152602001828054610f3f9061369e565b8015610f8c5780601f10610f6157610100808354040283529160200191610f8c565b820191906000526020600020905b815481529060010190602001808311610f6f57829003601f168201915b505050505090506000610f9d611a1c565b9050600081511415610fb3578192505050610ff6565b600082511115610fe8578082604051602001610fd0929190612f88565b60405160208183030381529060405292505050610ff6565b610ff184611a33565b925050505b919050565b60006110076007611ada565b9050600061101482610750565b9050600061102183610c0b565b9050600061102e84610d8b565b9050600083838360405160200161104793929190612fac565b6040516020818303038152906040529050600060088260405160200161106e929190612fdd565b604051602081830303815290604052905060006110b38361108e84611ae8565b60405160200161109f929190613050565b604051602081830303815290604052611ae8565b90506000816040516020016110c891906130b7565b60405160208183030381529060405290506111176040518060400160405280601581526020017f0a2d2d2d2d2d2d2d2d2d2d2d2d2d2d2d2d2d2d2d2d0000000000000000000000815250611276565b61112081611276565b61115e6040518060400160405280601581526020017f2d2d2d2d2d2d2d2d2d2d2d2d2d2d2d2d2d2d2d2d0a0000000000000000000000815250611276565b6111683389611ca6565b6111728882611cc4565b61117c6007611d38565b61119f604051806060016040528060258152602001613874602591398933611d4e565b7febb98688741ffa4c7589bf325de30cf7becb63de567842e1ccdb6cb949fdc82c33896040516111d0929190613140565b60405180910390a15050505050505050565b6000600560008473ffffffffffffffffffffffffffffffffffffffff1673ffffffffffffffffffffffffffffffffffffffff16815260200190815260200160002060008373ffffffffffffffffffffffffffffffffffffffff1673ffffffffffffffffffffffffffffffffffffffff16815260200190815260200160002060009054906101000a900460ff16905092915050565b61130c8160405160240161128a9190613184565b6040516020818303038152906040527f41304fac000000000000000000000000000000000000000000000000000000007bffffffffffffffffffffffffffffffffffffffffffffffffffffffff19166020820180517bffffffffffffffffffffffffffffffffffffffffffffffffffffffff8381831617835250505050611ded565b50565b60007f01ffc9a7000000000000000000000000000000000000000000000000000000007bffffffffffffffffffffffffffffffffffffffffffffffffffffffff1916827bffffffffffffffffffffffffffffffffffffffffffffffffffffffff1916149050919050565b60008073ffffffffffffffffffffffffffffffffffffffff166002600084815260200190815260200160002060009054906101000a900473ffffffffffffffffffffffffffffffffffffffff1673ffffffffffffffffffffffffffffffffffffffff1614159050919050565b600033905090565b816004600083815260200190815260200160002060006101000a81548173ffffffffffffffffffffffffffffffffffffffff021916908373ffffffffffffffffffffffffffffffffffffffff160217905550808273ffffffffffffffffffffffffffffffffffffffff166114608361088e565b73ffffffffffffffffffffffffffffffffffffffff167f8c5be1e5ebec7d5bd14f71427d1e84f3dd0314c0f7b2291e5b200ac8c7c3b92560405160405180910390a45050565b60006114b182611379565b6114f0576040517f08c379a00000000000000000000000000000000000000000000000000000000081526004016114e790613264565b60405180910390fd5b60006114fb8361088e565b90508073ffffffffffffffffffffffffffffffffffffffff168473ffffffffffffffffffffffffffffffffffffffff16148061156a57508373ffffffffffffffffffffffffffffffffffffffff1661155284610553565b73ffffffffffffffffffffffffffffffffffffffff16145b8061157b575061157a81856111e2565b5b91505092915050565b8273ffffffffffffffffffffffffffffffffffffffff166115a48261088e565b73ffffffffffffffffffffffffffffffffffffffff16146115fa576040517f08c379a00000000000000000000000000000000000000000000000000000000081526004016115f190613364565b60405180910390fd5b600073ffffffffffffffffffffffffffffffffffffffff168273ffffffffffffffffffffffffffffffffffffffff16141561166a576040517f08c379a000000000000000000000000000000000000000000000000000000000815260040161166190613224565b60405180910390fd5b611675838383611e16565b6116806000826113ed565b6001600360008573ffffffffffffffffffffffffffffffffffffffff1673ffffffffffffffffffffffffffffffffffffffff16815260200190815260200160002060008282546116d091906135b4565b925050819055506001600360008473ffffffffffffffffffffffffffffffffffffffff1673ffffffffffffffffffffffffffffffffffffffff168152602001908152602001600020600082825461172791906134d3565b92505081905550816002600083815260200190815260200160002060006101000a81548173ffffffffffffffffffffffffffffffffffffffff021916908373ffffffffffffffffffffffffffffffffffffffff160217905550808273ffffffffffffffffffffffffffffffffffffffff168473ffffffffffffffffffffffffffffffffffffffff167fddf252ad1be2c89b69c2b068fc378daa952ba7f163c4a11628f55a4df523b3ef60405160405180910390a4505050565b60606000821415611828576040518060400160405280600181526020017f30000000000000000000000000000000000000000000000000000000000000008152509050611988565b600082905060005b6000821461185a578080611843906136d0565b915050600a826118539190613529565b9150611830565b60008167ffffffffffffffff81111561189c577f4e487b7100000000000000000000000000000000000000000000000000000000600052604160045260246000fd5b6040519080825280601f01601f1916602001820160405280156118ce5781602001600182028036833780820191505090505b5090505b60008514611981576001826118e791906135b4565b9150600a856118f69190613719565b603061190291906134d3565b60f81b81838151811061193e577f4e487b7100000000000000000000000000000000000000000000000000000000600052603260045260246000fd5b60200101907effffffffffffffffffffffffffffffffffffffffffffffffffffffffffffff1916908160001a905350600a8561197a9190613529565b94506118d2565b8093505050505b919050565b6000816040516020016119a09190612f71565b6040516020818303038152906040528051906020012060001c9050919050565b6119cb848484611584565b6119d784848484611e1b565b611a16576040517f08c379a0000000000000000000000000000000000000000000000000000000008152600401611a0d906131e4565b60405180910390fd5b50505050565b606060405180602001604052806000815250905090565b6060611a3e82611379565b611a7d576040517f08c379a0000000000000000000000000000000000000000000000000000000008152600401611a7490613384565b60405180910390fd5b6000611a87611a1c565b90506000815111611aa75760405180602001604052806000815250611ad2565b80611ab1846117e0565b604051602001611ac2929190612f88565b6040516020818303038152906040525b915050919050565b600081600001549050919050565b60606000825190506000811415611b115760405180602001604052806000815250915050611ca1565b60006003600283611b2291906134d3565b611b2c9190613529565b6004611b38919061355a565b90506000602082611b4991906134d3565b67ffffffffffffffff811115611b88577f4e487b7100000000000000000000000000000000000000000000000000000000600052604160045260246000fd5b6040519080825280601f01601f191660200182016040528015611bba5781602001600182028036833780820191505090505b5090506000604051806060016040528060408152602001613899604091399050600181016020830160005b86811015611c5e5760038101905062ffffff818a015116603f8160121c168401518060081b905060ff603f83600c1c1686015116810190508060081b905060ff603f8360061c1686015116810190508060081b905060ff603f831686015116810190508060e01b90508084526004840193505050611be5565b506003860660018114611c785760028114611c8857611c93565b613d3d60f01b6002830352611c93565b603d60f81b60018303525b508484525050819450505050505b919050565b611cc0828260405180602001604052806000815250611fb2565b5050565b611ccd82611379565b611d0c576040517f08c379a0000000000000000000000000000000000000000000000000000000008152600401611d03906132e4565b60405180910390fd5b80600660008481526020019081526020016000209080519060200190611d33929190612201565b505050565b6001816000016000828254019250508190555050565b611de8838383604051602401611d66939291906131a6565b6040516020818303038152906040527fe3849f79000000000000000000000000000000000000000000000000000000007bffffffffffffffffffffffffffffffffffffffffffffffffffffffff19166020820180517bffffffffffffffffffffffffffffffffffffffffffffffffffffffff8381831617835250505050611ded565b505050565b60008151905060006a636f6e736f6c652e6c6f679050602083016000808483855afa5050505050565b505050565b6000611e3c8473ffffffffffffffffffffffffffffffffffffffff1661200d565b15611fa5578373ffffffffffffffffffffffffffffffffffffffff1663150b7a02611e656113e5565b8786866040518563ffffffff1660e01b8152600401611e8794939291906130f4565b602060405180830381600087803b158015611ea157600080fd5b505af1925050508015611ed257506040513d601f19601f82011682018060405250810190611ecf9190612545565b60015b611f55573d8060008114611f02576040519150601f19603f3d011682016040523d82523d6000602084013e611f07565b606091505b50600081511415611f4d576040517f08c379a0000000000000000000000000000000000000000000000000000000008152600401611f44906131e4565b60405180910390fd5b805181602001fd5b63150b7a0260e01b7bffffffffffffffffffffffffffffffffffffffffffffffffffffffff1916817bffffffffffffffffffffffffffffffffffffffffffffffffffffffff191614915050611faa565b600190505b949350505050565b611fbc8383612020565b611fc96000848484611e1b565b612008576040517f08c379a0000000000000000000000000000000000000000000000000000000008152600401611fff906131e4565b60405180910390fd5b505050565b600080823b905060008111915050919050565b600073ffffffffffffffffffffffffffffffffffffffff168273ffffffffffffffffffffffffffffffffffffffff161415612090576040517f08c379a000000000000000000000000000000000000000000000000000000000815260040161208790613304565b60405180910390fd5b61209981611379565b156120d9576040517f08c379a00000000000000000000000000000000000000000000000000000000081526004016120d090613204565b60405180910390fd5b6120e560008383611e16565b6001600360008473ffffffffffffffffffffffffffffffffffffffff1673ffffffffffffffffffffffffffffffffffffffff168152602001908152602001600020600082825461213591906134d3565b92505081905550816002600083815260200190815260200160002060006101000a81548173ffffffffffffffffffffffffffffffffffffffff021916908373ffffffffffffffffffffffffffffffffffffffff160217905550808273ffffffffffffffffffffffffffffffffffffffff16600073ffffffffffffffffffffffffffffffffffffffff167fddf252ad1be2c89b69c2b068fc378daa952ba7f163c4a11628f55a4df523b3ef60405160405180910390a45050565b6040518060200160405280600081525090565b82805461220d9061369e565b90600052602060002090601f01602090048101928261222f5760008555612276565b82601f1061224857805160ff1916838001178555612276565b82800160010185558215612276579182015b8281111561227557825182559160200191906001019061225a565b5b5090506122839190612287565b5090565b5b808211156122a0576000816000905550600101612288565b5090565b60006122b76122b28461344b565b61341a565b9050828152602081018484840111156122cf57600080fd5b6122da84828561365c565b509392505050565b6000813590506122f181613817565b92915050565b6000813590506123068161382e565b92915050565b60008135905061231b81613845565b92915050565b60008151905061233081613845565b92915050565b600082601f83011261234757600080fd5b81356123578482602086016122a4565b91505092915050565b60008135905061236f8161385c565b92915050565b60006020828403121561238757600080fd5b6000612395848285016122e2565b91505092915050565b600080604083850312156123b157600080fd5b60006123bf858286016122e2565b92505060206123d0858286016122e2565b9150509250929050565b6000806000606084860312156123ef57600080fd5b60006123fd868287016122e2565b935050602061240e868287016122e2565b925050604061241f86828701612360565b9150509250925092565b6000806000806080858703121561243f57600080fd5b600061244d878288016122e2565b945050602061245e878288016122e2565b935050604061246f87828801612360565b925050606085013567ffffffffffffffff81111561248c57600080fd5b61249887828801612336565b91505092959194509250565b600080604083850312156124b757600080fd5b60006124c5858286016122e2565b92505060206124d6858286016122f7565b9150509250929050565b600080604083850312156124f357600080fd5b6000612501858286016122e2565b925050602061251285828601612360565b9150509250929050565b60006020828403121561252e57600080fd5b600061253c8482850161230c565b91505092915050565b60006020828403121561255757600080fd5b600061256584828501612321565b91505092915050565b60006020828403121561258057600080fd5b600061258e84828501612360565b91505092915050565b6125a0816135e8565b82525050565b6125af816135fa565b82525050565b60006125c082613490565b6125ca81856134a6565b93506125da81856020860161366b565b6125e381613806565b840191505092915050565b60006125f98261349b565b61260381856134b7565b935061261381856020860161366b565b61261c81613806565b840191505092915050565b60006126328261349b565b61263c81856134c8565b935061264c81856020860161366b565b80840191505092915050565b600081546126658161369e565b61266f81866134c8565b9450600182166000811461268a576001811461269b576126ce565b60ff198316865281860193506126ce565b6126a48561347b565b60005b838110156126c6578154818901526001820191506020810190506126a7565b838801955050505b50505092915050565b60006126e46032836134b7565b91507f4552433732313a207472616e7366657220746f206e6f6e20455243373231526560008301527f63656976657220696d706c656d656e74657200000000000000000000000000006020830152604082019050919050565b600061274a601c836134b7565b91507f4552433732313a20746f6b656e20616c7265616479206d696e746564000000006000830152602082019050919050565b600061278a600a836134c8565b91507f54484952445f574f5244000000000000000000000000000000000000000000006000830152600a82019050919050565b60006127ca6024836134b7565b91507f4552433732313a207472616e7366657220746f20746865207a65726f2061646460008301527f72657373000000000000000000000000000000000000000000000000000000006020830152604082019050919050565b60006128306019836134b7565b91507f4552433732313a20617070726f766520746f2063616c6c6572000000000000006000830152602082019050919050565b60006128706063836134c8565b91507f222c20226465736372697074696f6e223a20224120686967686c79206163636c60008301527f61696d656420636f6c6c656374696f6e206f6620737175617265732e222c202260208301527f696d616765223a2022646174613a696d6167652f7376672b786d6c3b6261736560408301527f36342c00000000000000000000000000000000000000000000000000000000006060830152606382019050919050565b6000612922600b836134c8565b91507f5345434f4e445f574f52440000000000000000000000000000000000000000006000830152600b82019050919050565b6000612962602c836134b7565b91507f4552433732313a206f70657261746f7220717565727920666f72206e6f6e657860008301527f697374656e7420746f6b656e00000000000000000000000000000000000000006020830152604082019050919050565b60006129c8600d836134c8565b91507f3c2f746578743e3c2f7376673e000000000000000000000000000000000000006000830152600d82019050919050565b6000612a086038836134b7565b91507f4552433732313a20617070726f76652063616c6c6572206973206e6f74206f7760008301527f6e6572206e6f7220617070726f76656420666f7220616c6c00000000000000006020830152604082019050919050565b6000612a6e602a836134b7565b91507f4552433732313a2062616c616e636520717565727920666f7220746865207a6560008301527f726f2061646472657373000000000000000000000000000000000000000000006020830152604082019050919050565b6000612ad46029836134b7565b91507f4552433732313a206f776e657220717565727920666f72206e6f6e657869737460008301527f656e7420746f6b656e00000000000000000000000000000000000000000000006020830152604082019050919050565b6000612b3a602e836134b7565b91507f45524337323155524953746f726167653a2055524920736574206f66206e6f6e60008301527f6578697374656e7420746f6b656e0000000000000000000000000000000000006020830152604082019050919050565b6000612ba06002836134c8565b91507f227d0000000000000000000000000000000000000000000000000000000000006000830152600282019050919050565b6000612be06020836134b7565b91507f4552433732313a206d696e7420746f20746865207a65726f20616464726573736000830152602082019050919050565b6000612c206031836134b7565b91507f45524337323155524953746f726167653a2055524920717565727920666f722060008301527f6e6f6e6578697374656e7420746f6b656e0000000000000000000000000000006020830152604082019050919050565b6000612c86602c836134b7565b91507f4552433732313a20617070726f76656420717565727920666f72206e6f6e657860008301527f697374656e7420746f6b656e00000000000000000000000000000000000000006020830152604082019050919050565b6000612cec6029836134b7565b91507f4552433732313a207472616e73666572206f6620746f6b656e2074686174206960008301527f73206e6f74206f776e00000000000000000000000000000000000000000000006020830152604082019050919050565b6000612d52602f836134b7565b91507f4552433732314d657461646174613a2055524920717565727920666f72206e6f60008301527f6e6578697374656e7420746f6b656e00000000000000000000000000000000006020830152604082019050919050565b6000612db8600a836134c8565b91507f7b226e616d65223a2022000000000000000000000000000000000000000000006000830152600a82019050919050565b6000612df86021836134b7565b91507f4552433732313a20617070726f76616c20746f2063757272656e74206f776e6560008301527f72000000000000000000000000000000000000000000000000000000000000006020830152604082019050919050565b6000612e5e600a836134c8565b91507f46495253545f574f5244000000000000000000000000000000000000000000006000830152600a82019050919050565b6000612e9e601d836134c8565b91507f646174613a6170706c69636174696f6e2f6a736f6e3b6261736536342c0000006000830152601d82019050919050565b6000612ede6031836134b7565b91507f4552433732313a207472616e736665722063616c6c6572206973206e6f74206f60008301527f776e6572206e6f7220617070726f7665640000000000000000000000000000006020830152604082019050919050565b602082016000820151612f4d6000850182612f53565b50505050565b612f5c81613652565b82525050565b612f6b81613652565b82525050565b6000612f7d8284612627565b915081905092915050565b6000612f948285612627565b9150612fa08284612627565b91508190509392505050565b6000612fb88286612627565b9150612fc48285612627565b9150612fd08284612627565b9150819050949350505050565b6000612fe98285612658565b9150612ff58284612627565b9150613000826129bb565b91508190509392505050565b60006130178261277d565b91506130238284612627565b915081905092915050565b600061303982612915565b91506130458284612627565b915081905092915050565b600061305b82612dab565b91506130678285612627565b915061307282612863565b915061307e8284612627565b915061308982612b93565b91508190509392505050565b60006130a082612e51565b91506130ac8284612627565b915081905092915050565b60006130c282612e91565b91506130ce8284612627565b915081905092915050565b60006020820190506130ee6000830184612597565b92915050565b60006080820190506131096000830187612597565b6131166020830186612597565b6131236040830185612f62565b818103606083015261313581846125b5565b905095945050505050565b60006040820190506131556000830185612597565b6131626020830184612f62565b9392505050565b600060208201905061317e60008301846125a6565b92915050565b6000602082019050818103600083015261319e81846125ee565b905092915050565b600060608201905081810360008301526131c081866125ee565b90506131cf6020830185612f62565b6131dc6040830184612597565b949350505050565b600060208201905081810360008301526131fd816126d7565b9050919050565b6000602082019050818103600083015261321d8161273d565b9050919050565b6000602082019050818103600083015261323d816127bd565b9050919050565b6000602082019050818103600083015261325d81612823565b9050919050565b6000602082019050818103600083015261327d81612955565b9050919050565b6000602082019050818103600083015261329d816129fb565b9050919050565b600060208201905081810360008301526132bd81612a61565b9050919050565b600060208201905081810360008301526132dd81612ac7565b9050919050565b600060208201905081810360008301526132fd81612b2d565b9050919050565b6000602082019050818103600083015261331d81612bd3565b9050919050565b6000602082019050818103600083015261333d81612c13565b9050919050565b6000602082019050818103600083015261335d81612c79565b9050919050565b6000602082019050818103600083015261337d81612cdf565b9050919050565b6000602082019050818103600083015261339d81612d45565b9050919050565b600060208201905081810360008301526133bd81612deb565b9050919050565b600060208201905081810360008301526133dd81612ed1565b9050919050565b60006020820190506133f96000830184612f37565b92915050565b60006020820190506134146000830184612f62565b92915050565b6000604051905081810181811067ffffffffffffffff82111715613441576134406137d7565b5b8060405250919050565b600067ffffffffffffffff821115613466576134656137d7565b5b601f19601f8301169050602081019050919050565b60008190508160005260206000209050919050565b600081519050919050565b600081519050919050565b600082825260208201905092915050565b600082825260208201905092915050565b600081905092915050565b60006134de82613652565b91506134e983613652565b9250827fffffffffffffffffffffffffffffffffffffffffffffffffffffffffffffffff0382111561351e5761351d61374a565b5b828201905092915050565b600061353482613652565b915061353f83613652565b92508261354f5761354e613779565b5b828204905092915050565b600061356582613652565b915061357083613652565b9250817fffffffffffffffffffffffffffffffffffffffffffffffffffffffffffffffff04831182151516156135a9576135a861374a565b5b828202905092915050565b60006135bf82613652565b91506135ca83613652565b9250828210156135dd576135dc61374a565b5b828203905092915050565b60006135f382613632565b9050919050565b60008115159050919050565b60007fffffffff0000000000000000000000000000000000000000000000000000000082169050919050565b600073ffffffffffffffffffffffffffffffffffffffff82169050919050565b6000819050919050565b82818337600083830152505050565b60005b8381101561368957808201518184015260208101905061366e565b83811115613698576000848401525b50505050565b600060028204905060018216806136b657607f821691505b602082108114156136ca576136c96137a8565b5b50919050565b60006136db82613652565b91507fffffffffffffffffffffffffffffffffffffffffffffffffffffffffffffffff82141561370e5761370d61374a565b5b600182019050919050565b600061372482613652565b915061372f83613652565b92508261373f5761373e613779565b5b828206905092915050565b7f4e487b7100000000000000000000000000000000000000000000000000000000600052601160045260246000fd5b7f4e487b7100000000000000000000000000000000000000000000000000000000600052601260045260246000fd5b7f4e487b7100000000000000000000000000000000000000000000000000000000600052602260045260246000fd5b7f4e487b7100000000000000000000000000000000000000000000000000000000600052604160045260246000fd5b6000601f19601f8301169050919050565b613820816135e8565b811461382b57600080fd5b50565b613837816135fa565b811461384257600080fd5b50565b61384e81613606565b811461385957600080fd5b50565b61386581613652565b811461387057600080fd5b5056fe416e204e465420772f20494420257320686173206265656e206d696e74656420746f2025734142434445464748494a4b4c4d4e4f505152535455565758595a6162636465666768696a6b6c6d6e6f707172737475767778797a303132333435363738392b2fa264697066735822122022a7e2b4e6fd11454a3a720241bda1658797d83c5230e0feb550402129ae413d64736f6c634300080000333c73766720786d6c6e733d27687474703a2f2f7777772e77332e6f72672f323030302f73766727207072657365727665417370656374526174696f3d27784d696e594d696e206d656574272076696577426f783d273020302033353020333530273e3c7374796c653e2e62617365207b2066696c6c3a2077686974653b20666f6e742d66616d696c793a2073657269663b20666f6e742d73697a653a20323470783b207d3c2f7374796c653e3c726563742077696474683d273130302527206865696768743d2731303025272066696c6c3d27626c61636b27202f3e3c7465787420783d273530252720793d273530252720636c6173733d27626173652720646f6d696e616e742d626173656c696e653d276d6964646c652720746578742d616e63686f723d276d6964646c65273e",
  "linkReferences": {},
  "deployedLinkReferences": {}
}